{
  "transactions": [
    {
      "hash": "0x530342a244f85a1f8a84209e6a80266a9cd3e06bc3d5f72a4d7918624a17cee0",
      "transactionType": "CALL",
      "contractName": null,
      "contractAddress": "0x8f4fc07a34afc12658215a6229fd97e7bdc8b53e",
      "function": "approve(address,uint256)",
      "arguments": [
        "0xeb88Df96297bD0837a2e1F80cC15773891b44EfB",
        "20000000000000000000"
      ],
      "transaction": {
        "from": "0x91dcf137f42130e5095558ee1d143f0282b114b0",
        "to": "0x8f4fc07a34afc12658215a6229fd97e7bdc8b53e",
        "gas": "0xfd42",
        "value": "0x0",
        "input": "0x095ea7b3000000000000000000000000eb88df96297bd0837a2e1f80cc15773891b44efb000000000000000000000000000000000000000000000001158e460913d00000",
        "nonce": "0x32",
        "chainId": "0xaa36a7"
      },
      "additionalContracts": [],
      "isFixedGasLimit": false
    },
    {
      "hash": "0x013d8ebb68493805b72193efcb3f46412a55fdc1d2bb63bf0d8705ebc28acfce",
      "transactionType": "CALL",
      "contractName": null,
      "contractAddress": "0x4707ed3d852ff20227490a0765dc98e2d79e5c31",
      "function": "setWeb3ojt(address)",
      "arguments": [
        "0x8f4FC07a34aFc12658215A6229Fd97e7bDC8b53E"
      ],
      "transaction": {
        "from": "0x91dcf137f42130e5095558ee1d143f0282b114b0",
        "to": "0x4707ed3d852ff20227490a0765dc98e2d79e5c31",
        "gas": "0x8234",
        "value": "0x0",
        "input": "0x754788fa0000000000000000000000008f4fc07a34afc12658215a6229fd97e7bdc8b53e",
        "nonce": "0x33",
        "chainId": "0xaa36a7"
      },
      "additionalContracts": [],
      "isFixedGasLimit": false
    }
  ],
  "receipts": [
    {
      "status": "0x1",
      "cumulativeGasUsed": "0xdddff4",
      "logs": [
        {
          "address": "0x8f4fc07a34afc12658215a6229fd97e7bdc8b53e",
          "topics": [
            "0x8c5be1e5ebec7d5bd14f71427d1e84f3dd0314c0f7b2291e5b200ac8c7c3b925",
            "0x00000000000000000000000091dcf137f42130e5095558ee1d143f0282b114b0",
            "0x000000000000000000000000eb88df96297bd0837a2e1f80cc15773891b44efb"
          ],
          "data": "0x000000000000000000000000000000000000000000000001158e460913d00000",
          "blockHash": "0xe60597e21e25afc69de34636e596b359362d2a9b8e15826c6adb990b30e8a452",
          "blockNumber": "0x7cdff8",
          "blockTimestamp": "0x6809c6f4",
          "transactionHash": "0x530342a244f85a1f8a84209e6a80266a9cd3e06bc3d5f72a4d7918624a17cee0",
          "transactionIndex": "0x6f",
          "logIndex": "0xf9",
          "removed": false
        }
      ],
      "logsBloom": "0x00000000000000000000040001000000000000000000000000000000000000000000000000000000000000000000000000000000000000000000000000200000000000000000000000000000000000080000000000000000000000020000000000000000000000000000000000000000000000000000000000000000000000000000000000000000000001000000000000000000000000000000000000000000020000000000000000000000000000000000000000000000000000000000000000000000000000000000000000000000000000000000000000000000000000000010010000000000000000000000000000000000000081000000000000040000",
      "type": "0x2",
      "transactionHash": "0x530342a244f85a1f8a84209e6a80266a9cd3e06bc3d5f72a4d7918624a17cee0",
      "transactionIndex": "0x6f",
      "blockHash": "0xe60597e21e25afc69de34636e596b359362d2a9b8e15826c6adb990b30e8a452",
      "blockNumber": "0x7cdff8",
      "gasUsed": "0xb75c",
      "effectiveGasPrice": "0x17be2fb95",
      "from": "0x91dcf137f42130e5095558ee1d143f0282b114b0",
      "to": "0x8f4fc07a34afc12658215a6229fd97e7bdc8b53e",
      "contractAddress": null
    },
    {
      "status": "0x1",
      "cumulativeGasUsed": "0xde3e38",
      "logs": [],
      "logsBloom": "0x00000000000000000000000000000000000000000000000000000000000000000000000000000000000000000000000000000000000000000000000000000000000000000000000000000000000000000000000000000000000000000000000000000000000000000000000000000000000000000000000000000000000000000000000000000000000000000000000000000000000000000000000000000000000000000000000000000000000000000000000000000000000000000000000000000000000000000000000000000000000000000000000000000000000000000000000000000000000000000000000000000000000000000000000000000000",
      "type": "0x2",
      "transactionHash": "0x013d8ebb68493805b72193efcb3f46412a55fdc1d2bb63bf0d8705ebc28acfce",
      "transactionIndex": "0x70",
      "blockHash": "0xe60597e21e25afc69de34636e596b359362d2a9b8e15826c6adb990b30e8a452",
      "blockNumber": "0x7cdff8",
      "gasUsed": "0x5e44",
      "effectiveGasPrice": "0x17be2fb95",
      "from": "0x91dcf137f42130e5095558ee1d143f0282b114b0",
      "to": "0x4707ed3d852ff20227490a0765dc98e2d79e5c31",
      "contractAddress": null
    }
  ],
  "libraries": [],
  "pending": [],
  "returns": {},
  "timestamp": 1745471221,
  "chain": 11155111,
  "commit": "c874213"
}