{
  "transactions": [
    {
      "hash": "0xe058ae2be790591902a8889f5f7f0949f2daeb83e4c39783682ada7e71e4ddaa",
      "transactionType": "CALL",
      "contractName": null,
      "contractAddress": "0x8f4fc07a34afc12658215a6229fd97e7bdc8b53e",
      "function": "approve(address,uint256)",
      "arguments": [
        "0xeb88Df96297bD0837a2e1F80cC15773891b44EfB",
        "20000000000000000000"
      ],
      "transaction": {
        "from": "0x91dcf137f42130e5095558ee1d143f0282b114b0",
        "to": "0x8f4fc07a34afc12658215a6229fd97e7bdc8b53e",
        "gas": "0x91e5",
        "value": "0x0",
        "input": "0x095ea7b3000000000000000000000000eb88df96297bd0837a2e1f80cc15773891b44efb000000000000000000000000000000000000000000000001158e460913d00000",
        "nonce": "0x36",
        "chainId": "0xaa36a7"
      },
      "additionalContracts": [],
      "isFixedGasLimit": false
    },
    {
      "hash": "0xc9bdb372fec9ab0026d592cbdeb717de3a49e1b6dda85cb2f40a5fceeca327da",
      "transactionType": "CALL",
      "contractName": null,
      "contractAddress": "0xeb88df96297bd0837a2e1f80cc15773891b44efb",
      "function": "setWeb3ojt(address)",
      "arguments": [
        "0x8f4FC07a34aFc12658215A6229Fd97e7bDC8b53E"
      ],
      "transaction": {
        "from": "0x91dcf137f42130e5095558ee1d143f0282b114b0",
        "to": "0xeb88df96297bd0837a2e1f80cc15773891b44efb",
        "gas": "0xed93",
        "value": "0x0",
        "input": "0x754788fa0000000000000000000000008f4fc07a34afc12658215a6229fd97e7bdc8b53e",
        "nonce": "0x37",
        "chainId": "0xaa36a7"
      },
      "additionalContracts": [],
      "isFixedGasLimit": false
    }
  ],
  "receipts": [
    {
      "status": "0x1",
      "cumulativeGasUsed": "0xfe9fd6",
      "logs": [
        {
          "address": "0x8f4fc07a34afc12658215a6229fd97e7bdc8b53e",
          "topics": [
            "0x8c5be1e5ebec7d5bd14f71427d1e84f3dd0314c0f7b2291e5b200ac8c7c3b925",
            "0x00000000000000000000000091dcf137f42130e5095558ee1d143f0282b114b0",
            "0x000000000000000000000000eb88df96297bd0837a2e1f80cc15773891b44efb"
          ],
          "data": "0x000000000000000000000000000000000000000000000001158e460913d00000",
          "blockHash": "0xd473bab1481b273021152cac6587e0eee7ecfe26c6f52d04a53724053ddc0cd4",
          "blockNumber": "0x7ce7a8",
          "blockTimestamp": "0x680a285c",
          "transactionHash": "0xe058ae2be790591902a8889f5f7f0949f2daeb83e4c39783682ada7e71e4ddaa",
          "transactionIndex": "0xc0",
          "logIndex": "0x108",
          "removed": false
        }
      ],
      "logsBloom": "0x00000000000000000000040001000000000000000000000000000000000000000000000000000000000000000000000000000000000000000000000000200000000000000000000000000000000000080000000000000000000000020000000000000000000000000000000000000000000000000000000000000000000000000000000000000000000001000000000000000000000000000000000000000000020000000000000000000000000000000000000000000000000000000000000000000000000000000000000000000000000000000000000000000000000000000010010000000000000000000000000000000000000081000000000000040000",
      "type": "0x2",
      "transactionHash": "0xe058ae2be790591902a8889f5f7f0949f2daeb83e4c39783682ada7e71e4ddaa",
      "transactionIndex": "0xc0",
      "blockHash": "0xd473bab1481b273021152cac6587e0eee7ecfe26c6f52d04a53724053ddc0cd4",
      "blockNumber": "0x7ce7a8",
      "gasUsed": "0x69a0",
      "effectiveGasPrice": "0x37d2b642e",
      "from": "0x91dcf137f42130e5095558ee1d143f0282b114b0",
      "to": "0x8f4fc07a34afc12658215a6229fd97e7bdc8b53e",
      "contractAddress": null
    },
    {
      "status": "0x1",
      "cumulativeGasUsed": "0xff4bd6",
      "logs": [],
      "logsBloom": "0x00000000000000000000000000000000000000000000000000000000000000000000000000000000000000000000000000000000000000000000000000000000000000000000000000000000000000000000000000000000000000000000000000000000000000000000000000000000000000000000000000000000000000000000000000000000000000000000000000000000000000000000000000000000000000000000000000000000000000000000000000000000000000000000000000000000000000000000000000000000000000000000000000000000000000000000000000000000000000000000000000000000000000000000000000000000",
      "type": "0x2",
      "transactionHash": "0xc9bdb372fec9ab0026d592cbdeb717de3a49e1b6dda85cb2f40a5fceeca327da",
      "transactionIndex": "0xc1",
      "blockHash": "0xd473bab1481b273021152cac6587e0eee7ecfe26c6f52d04a53724053ddc0cd4",
      "blockNumber": "0x7ce7a8",
      "gasUsed": "0xac00",
      "effectiveGasPrice": "0x37d2b642e",
      "from": "0x91dcf137f42130e5095558ee1d143f0282b114b0",
      "to": "0xeb88df96297bd0837a2e1f80cc15773891b44efb",
      "contractAddress": null
    }
  ],
  "libraries": [],
  "pending": [],
  "returns": {},
  "timestamp": 1745496157,
  "chain": 11155111,
  "commit": "c874213"
}