{
  "transactions": [
    {
      "hash": "0x555747c7b13bcf6aede084a3c373a5f25fb4342e93079e24dc38846aea6e7533",
      "transactionType": "CREATE",
      "contractName": "MyMultiplicationCalculator",
      "contractAddress": "0x11e23e41addf4e19233ab98467f15ea49ee90b29",
      "function": null,
      "arguments": null,
      "transaction": {
        "from": "0x91dcf137f42130e5095558ee1d143f0282b114b0",
        "gas": "0x2e9c9",
        "value": "0x0",
        "input": "0x6080604052348015600e575f5ffd5b506101b38061001c5f395ff3fe608060405234801561000f575f5ffd5b5060043610610029575f3560e01c8063165c4a161461002d575b5f5ffd5b610047600480360381019061004291906100a9565b61005d565b60405161005491906100f6565b60405180910390f35b5f818361006a919061013c565b905092915050565b5f5ffd5b5f819050919050565b61008881610076565b8114610092575f5ffd5b50565b5f813590506100a38161007f565b92915050565b5f5f604083850312156100bf576100be610072565b5b5f6100cc85828601610095565b92505060206100dd85828601610095565b9150509250929050565b6100f081610076565b82525050565b5f6020820190506101095f8301846100e7565b92915050565b7f4e487b71000000000000000000000000000000000000000000000000000000005f52601160045260245ffd5b5f61014682610076565b915061015183610076565b925082820261015f81610076565b915082820484148315176101765761017561010f565b5b509291505056fea264697066735822122050b3a4144f88b366df3da338a37a376db307ee2924810f745d3a8d34ebe8654d64736f6c634300081c0033",
        "nonce": "0x1f",
        "chainId": "0xaa36a7"
      },
      "additionalContracts": [],
      "isFixedGasLimit": false
    },
    {
      "hash": "0xa972b98a7724d5c6cf261ac3a407ddfc144da2bf769b8c5bd41e094af5489fc6",
      "transactionType": "CALL",
      "contractName": null,
      "contractAddress": "0xd62ba83c51e63f69b212f24ac3ccf1a2dd70a39e",
      "function": "setMultiplicationCalculator(address)",
      "arguments": [
        "0x11E23e41AddF4E19233AB98467f15Ea49EE90B29"
      ],
      "transaction": {
        "from": "0x91dcf137f42130e5095558ee1d143f0282b114b0",
        "to": "0xd62ba83c51e63f69b212f24ac3ccf1a2dd70a39e",
        "gas": "0x914f",
        "value": "0x0",
        "input": "0x218fefdc00000000000000000000000011e23e41addf4e19233ab98467f15ea49ee90b29",
        "nonce": "0x20",
        "chainId": "0xaa36a7"
      },
      "additionalContracts": [],
      "isFixedGasLimit": false
    }
  ],
  "receipts": [
    {
      "status": "0x1",
      "cumulativeGasUsed": "0x16f3dc7",
      "logs": [],
      "logsBloom": "0x00000000000000000000000000000000000000000000000000000000000000000000000000000000000000000000000000000000000000000000000000000000000000000000000000000000000000000000000000000000000000000000000000000000000000000000000000000000000000000000000000000000000000000000000000000000000000000000000000000000000000000000000000000000000000000000000000000000000000000000000000000000000000000000000000000000000000000000000000000000000000000000000000000000000000000000000000000000000000000000000000000000000000000000000000000000",
      "type": "0x2",
      "transactionHash": "0x555747c7b13bcf6aede084a3c373a5f25fb4342e93079e24dc38846aea6e7533",
      "transactionIndex": "0xfc",
      "blockHash": "0x789997fa924c5f8799df9130cd11e988bc7ca460cbc942502e03d46bf882a55c",
      "blockNumber": "0x7c61fe",
      "gasUsed": "0x23daf",
      "effectiveGasPrice": "0xf4be1",
      "from": "0x91dcf137f42130e5095558ee1d143f0282b114b0",
      "to": null,
      "contractAddress": "0x11e23e41addf4e19233ab98467f15ea49ee90b29"
    },
    {
      "status": "0x1",
      "cumulativeGasUsed": "0x16fa6fb",
      "logs": [],
      "logsBloom": "0x00000000000000000000000000000000000000000000000000000000000000000000000000000000000000000000000000000000000000000000000000000000000000000000000000000000000000000000000000000000000000000000000000000000000000000000000000000000000000000000000000000000000000000000000000000000000000000000000000000000000000000000000000000000000000000000000000000000000000000000000000000000000000000000000000000000000000000000000000000000000000000000000000000000000000000000000000000000000000000000000000000000000000000000000000000000",
      "type": "0x2",
      "transactionHash": "0xa972b98a7724d5c6cf261ac3a407ddfc144da2bf769b8c5bd41e094af5489fc6",
      "transactionIndex": "0xfd",
      "blockHash": "0x789997fa924c5f8799df9130cd11e988bc7ca460cbc942502e03d46bf882a55c",
      "blockNumber": "0x7c61fe",
      "gasUsed": "0x6934",
      "effectiveGasPrice": "0xf4be1",
      "from": "0x91dcf137f42130e5095558ee1d143f0282b114b0",
      "to": "0xd62ba83c51e63f69b212f24ac3ccf1a2dd70a39e",
      "contractAddress": null
    }
  ],
  "libraries": [],
  "pending": [],
  "returns": {},
  "timestamp": 1745070760,
  "chain": 11155111,
  "commit": "c874213"
}