{
  "transactions": [
    {
      "hash": "0xccb89f440480db5a64cce9e0d4538256fdc0b6c05f791067795c89fb977ebb23",
      "transactionType": "CALL",
      "contractName": null,
      "contractAddress": "0x8f4fc07a34afc12658215a6229fd97e7bdc8b53e",
      "function": "approve(address,uint256)",
      "arguments": [
        "0xeb88Df96297bD0837a2e1F80cC15773891b44EfB",
        "20000000000000000000"
      ],
      "transaction": {
        "from": "0x91dcf137f42130e5095558ee1d143f0282b114b0",
        "to": "0x8f4fc07a34afc12658215a6229fd97e7bdc8b53e",
        "gas": "0x91e5",
        "value": "0x0",
        "input": "0x095ea7b3000000000000000000000000eb88df96297bd0837a2e1f80cc15773891b44efb000000000000000000000000000000000000000000000001158e460913d00000",
        "nonce": "0x34",
        "chainId": "0xaa36a7"
      },
      "additionalContracts": [],
      "isFixedGasLimit": false
    },
    {
      "hash": "0x865c0a7e383ec6f131a025128878f6ae4228241256ecb7f4f90e2b43d4e372db",
      "transactionType": "CALL",
      "contractName": null,
      "contractAddress": "0x4707ed3d852ff20227490a0765dc98e2d79e5c31",
      "function": "setWeb3ojt(address)",
      "arguments": [
        "0x8f4FC07a34aFc12658215A6229Fd97e7bDC8b53E"
      ],
      "transaction": {
        "from": "0x91dcf137f42130e5095558ee1d143f0282b114b0",
        "to": "0x4707ed3d852ff20227490a0765dc98e2d79e5c31",
        "gas": "0x8234",
        "value": "0x0",
        "input": "0x754788fa0000000000000000000000008f4fc07a34afc12658215a6229fd97e7bdc8b53e",
        "nonce": "0x35",
        "chainId": "0xaa36a7"
      },
      "additionalContracts": [],
      "isFixedGasLimit": false
    }
  ],
  "receipts": [
    {
      "status": "0x1",
      "cumulativeGasUsed": "0xa533aa",
      "logs": [
        {
          "address": "0x8f4fc07a34afc12658215a6229fd97e7bdc8b53e",
          "topics": [
            "0x8c5be1e5ebec7d5bd14f71427d1e84f3dd0314c0f7b2291e5b200ac8c7c3b925",
            "0x00000000000000000000000091dcf137f42130e5095558ee1d143f0282b114b0",
            "0x000000000000000000000000eb88df96297bd0837a2e1f80cc15773891b44efb"
          ],
          "data": "0x000000000000000000000000000000000000000000000001158e460913d00000",
          "blockHash": "0x63d9545ca23c3703698a15464ffc6a4a66485d8f6012b8e9a8b821421b1344a2",
          "blockNumber": "0x7ce36d",
          "blockTimestamp": "0x6809f298",
          "transactionHash": "0xccb89f440480db5a64cce9e0d4538256fdc0b6c05f791067795c89fb977ebb23",
          "transactionIndex": "0x83",
          "logIndex": "0xc5",
          "removed": false
        }
      ],
      "logsBloom": "0x00000000000000000000040001000000000000000000000000000000000000000000000000000000000000000000000000000000000000000000000000200000000000000000000000000000000000080000000000000000000000020000000000000000000000000000000000000000000000000000000000000000000000000000000000000000000001000000000000000000000000000000000000000000020000000000000000000000000000000000000000000000000000000000000000000000000000000000000000000000000000000000000000000000000000000010010000000000000000000000000000000000000081000000000000040000",
      "type": "0x2",
      "transactionHash": "0xccb89f440480db5a64cce9e0d4538256fdc0b6c05f791067795c89fb977ebb23",
      "transactionIndex": "0x83",
      "blockHash": "0x63d9545ca23c3703698a15464ffc6a4a66485d8f6012b8e9a8b821421b1344a2",
      "blockNumber": "0x7ce36d",
      "gasUsed": "0x69a0",
      "effectiveGasPrice": "0xd9f24d083",
      "from": "0x91dcf137f42130e5095558ee1d143f0282b114b0",
      "to": "0x8f4fc07a34afc12658215a6229fd97e7bdc8b53e",
      "contractAddress": null
    },
    {
      "status": "0x1",
      "cumulativeGasUsed": "0xa591ee",
      "logs": [],
      "logsBloom": "0x00000000000000000000000000000000000000000000000000000000000000000000000000000000000000000000000000000000000000000000000000000000000000000000000000000000000000000000000000000000000000000000000000000000000000000000000000000000000000000000000000000000000000000000000000000000000000000000000000000000000000000000000000000000000000000000000000000000000000000000000000000000000000000000000000000000000000000000000000000000000000000000000000000000000000000000000000000000000000000000000000000000000000000000000000000000",
      "type": "0x2",
      "transactionHash": "0x865c0a7e383ec6f131a025128878f6ae4228241256ecb7f4f90e2b43d4e372db",
      "transactionIndex": "0x84",
      "blockHash": "0x63d9545ca23c3703698a15464ffc6a4a66485d8f6012b8e9a8b821421b1344a2",
      "blockNumber": "0x7ce36d",
      "gasUsed": "0x5e44",
      "effectiveGasPrice": "0xd9f24d083",
      "from": "0x91dcf137f42130e5095558ee1d143f0282b114b0",
      "to": "0x4707ed3d852ff20227490a0765dc98e2d79e5c31",
      "contractAddress": null
    }
  ],
  "libraries": [],
  "pending": [],
  "returns": {},
  "timestamp": 1745482393,
  "chain": 11155111,
  "commit": "c874213"
}