{
  "transactions": [
    {
      "hash": "0x9bdf6193373b2c4a287c47b79d901056adc67d12e956385c2d207464f4b3fc28",
      "transactionType": "CREATE",
      "contractName": "MyMinusCalculator",
      "contractAddress": "0xfd5efba2f6cc76607c6a848e4dd051ffbc992012",
      "function": null,
      "arguments": null,
      "transaction": {
        "from": "0x91dcf137f42130e5095558ee1d143f0282b114b0",
        "gas": "0x2da7e",
        "value": "0x0",
        "input": "0x6080604052348015600e575f5ffd5b506101a58061001c5f395ff3fe608060405234801561000f575f5ffd5b5060043610610029575f3560e01c8063f4f3bdc11461002d575b5f5ffd5b610047600480360381019061004291906100a9565b61005d565b60405161005491906100f6565b60405180910390f35b5f818361006a919061013c565b905092915050565b5f5ffd5b5f819050919050565b61008881610076565b8114610092575f5ffd5b50565b5f813590506100a38161007f565b92915050565b5f5f604083850312156100bf576100be610072565b5b5f6100cc85828601610095565b92505060206100dd85828601610095565b9150509250929050565b6100f081610076565b82525050565b5f6020820190506101095f8301846100e7565b92915050565b7f4e487b71000000000000000000000000000000000000000000000000000000005f52601160045260245ffd5b5f61014682610076565b915061015183610076565b92508282039050818111156101695761016861010f565b5b9291505056fea2646970667358221220f274c7f082f77d7950c675ddb0c21c1c984319e21c195e8015404f2edf3928b064736f6c634300081c0033",
        "nonce": "0x17",
        "chainId": "0xaa36a7"
      },
      "additionalContracts": [],
      "isFixedGasLimit": false
    },
    {
      "hash": "0x4c9b00a4fa34c57ca41d02139fc788415abbe634451e1c4941512eb60c1c616d",
      "transactionType": "CALL",
      "contractName": null,
      "contractAddress": "0x3f1d5f4da8334d007a71195f8c4ab3b0b3fed26d",
      "function": "setMinusCalculator(address)",
      "arguments": [
        "0xFD5EFBa2F6cc76607c6a848E4dD051fFBC992012"
      ],
      "transaction": {
        "from": "0x91dcf137f42130e5095558ee1d143f0282b114b0",
        "to": "0x3f1d5f4da8334d007a71195f8c4ab3b0b3fed26d",
        "gas": "0xed93",
        "value": "0x0",
        "input": "0x2931eb32000000000000000000000000fd5efba2f6cc76607c6a848e4dd051ffbc992012",
        "nonce": "0x18",
        "chainId": "0xaa36a7"
      },
      "additionalContracts": [],
      "isFixedGasLimit": false
    }
  ],
  "receipts": [
    {
      "status": "0x1",
      "cumulativeGasUsed": "0x8f4f82",
      "logs": [],
      "logsBloom": "0x00000000000000000000000000000000000000000000000000000000000000000000000000000000000000000000000000000000000000000000000000000000000000000000000000000000000000000000000000000000000000000000000000000000000000000000000000000000000000000000000000000000000000000000000000000000000000000000000000000000000000000000000000000000000000000000000000000000000000000000000000000000000000000000000000000000000000000000000000000000000000000000000000000000000000000000000000000000000000000000000000000000000000000000000000000000",
      "type": "0x2",
      "transactionHash": "0x9bdf6193373b2c4a287c47b79d901056adc67d12e956385c2d207464f4b3fc28",
      "transactionIndex": "0x59",
      "blockHash": "0x1f2d8a0bb7f61b2c88d13fa8043632f3ec898f46fec876745241d280a6a700cf",
      "blockNumber": "0x7c38b2",
      "gasUsed": "0x231eb",
      "effectiveGasPrice": "0x1b5301",
      "from": "0x91dcf137f42130e5095558ee1d143f0282b114b0",
      "to": null,
      "contractAddress": "0xfd5efba2f6cc76607c6a848e4dd051ffbc992012"
    },
    {
      "status": "0x1",
      "cumulativeGasUsed": "0xa68e6b",
      "logs": [],
      "logsBloom": "0x00000000000000000000000000000000000000000000000000000000000000000000000000000000000000000000000000000000000000000000000000000000000000000000000000000000000000000000000000000000000000000000000000000000000000000000000000000000000000000000000000000000000000000000000000000000000000000000000000000000000000000000000000000000000000000000000000000000000000000000000000000000000000000000000000000000000000000000000000000000000000000000000000000000000000000000000000000000000000000000000000000000000000000000000000000000",
      "type": "0x2",
      "transactionHash": "0x4c9b00a4fa34c57ca41d02139fc788415abbe634451e1c4941512eb60c1c616d",
      "transactionIndex": "0x69",
      "blockHash": "0x1f2d8a0bb7f61b2c88d13fa8043632f3ec898f46fec876745241d280a6a700cf",
      "blockNumber": "0x7c38b2",
      "gasUsed": "0xac00",
      "effectiveGasPrice": "0x1b5301",
      "from": "0x91dcf137f42130e5095558ee1d143f0282b114b0",
      "to": "0x3f1d5f4da8334d007a71195f8c4ab3b0b3fed26d",
      "contractAddress": null
    }
  ],
  "libraries": [],
  "pending": [],
  "returns": {},
  "timestamp": 1744942314,
  "chain": 11155111,
  "commit": "c874213"
}