{
  "transactions": [
    {
      "hash": "0x2866deb69af858fd8d50529b048448059c92d8f2407810f45b658a4baad9774b",
      "transactionType": "CREATE",
      "contractName": "MyDivisionCalculator",
      "contractAddress": "0xf3edc238c2c494512b4ff8e04ac9a03758c5d3ce",
      "function": null,
      "arguments": null,
      "transaction": {
        "from": "0x91dcf137f42130e5095558ee1d143f0282b114b0",
        "gas": "0x2d731",
        "value": "0x0",
        "input": "0x6080604052348015600e575f5ffd5b506101a28061001c5f395ff3fe608060405234801561000f575f5ffd5b5060043610610029575f3560e01c8063f88e9fbf1461002d575b5f5ffd5b610047600480360381019061004291906100a9565b61005d565b60405161005491906100f6565b60405180910390f35b5f818361006a919061013c565b905092915050565b5f5ffd5b5f819050919050565b61008881610076565b8114610092575f5ffd5b50565b5f813590506100a38161007f565b92915050565b5f5f604083850312156100bf576100be610072565b5b5f6100cc85828601610095565b92505060206100dd85828601610095565b9150509250929050565b6100f081610076565b82525050565b5f6020820190506101095f8301846100e7565b92915050565b7f4e487b71000000000000000000000000000000000000000000000000000000005f52601260045260245ffd5b5f61014682610076565b915061015183610076565b9250826101615761016061010f565b5b82820490509291505056fea2646970667358221220d0892d535de32f76117d4d346024500c12b3a4a88355809a2af4021794d2b29e64736f6c634300081c0033",
        "nonce": "0x25",
        "chainId": "0xaa36a7"
      },
      "additionalContracts": [],
      "isFixedGasLimit": false
    },
    {
      "hash": "0xd8e71651b07e1496ae3850a6d9775d2dc1fcb9902713b5525bbd6af1644b3845",
      "transactionType": "CALL",
      "contractName": null,
      "contractAddress": "0x6d04f9a23d4d11cb440380bc3a8365f121e1b6fd",
      "function": "setDivisionCalculator(address)",
      "arguments": [
        "0xF3EDc238C2c494512b4Ff8e04ac9a03758c5d3ce"
      ],
      "transaction": {
        "from": "0x91dcf137f42130e5095558ee1d143f0282b114b0",
        "to": "0x6d04f9a23d4d11cb440380bc3a8365f121e1b6fd",
        "gas": "0xed93",
        "value": "0x0",
        "input": "0x30980f17000000000000000000000000f3edc238c2c494512b4ff8e04ac9a03758c5d3ce",
        "nonce": "0x26",
        "chainId": "0xaa36a7"
      },
      "additionalContracts": [],
      "isFixedGasLimit": false
    }
  ],
  "receipts": [
    {
      "status": "0x1",
      "cumulativeGasUsed": "0xbb5ef1",
      "logs": [],
      "logsBloom": "0x00000000000000000000000000000000000000000000000000000000000000000000000000000000000000000000000000000000000000000000000000000000000000000000000000000000000000000000000000000000000000000000000000000000000000000000000000000000000000000000000000000000000000000000000000000000000000000000000000000000000000000000000000000000000000000000000000000000000000000000000000000000000000000000000000000000000000000000000000000000000000000000000000000000000000000000000000000000000000000000000000000000000000000000000000000000",
      "type": "0x2",
      "transactionHash": "0x2866deb69af858fd8d50529b048448059c92d8f2407810f45b658a4baad9774b",
      "transactionIndex": "0x6e",
      "blockHash": "0xadbd30716d0e26cc4b47e468fd58c19f7baad24d9382d4263b32e8b98c56aed1",
      "blockNumber": "0x7c62eb",
      "gasUsed": "0x22f61",
      "effectiveGasPrice": "0xf4c98",
      "from": "0x91dcf137f42130e5095558ee1d143f0282b114b0",
      "to": null,
      "contractAddress": "0xf3edc238c2c494512b4ff8e04ac9a03758c5d3ce"
    },
    {
      "status": "0x1",
      "cumulativeGasUsed": "0xbc0af1",
      "logs": [],
      "logsBloom": "0x00000000000000000000000000000000000000000000000000000000000000000000000000000000000000000000000000000000000000000000000000000000000000000000000000000000000000000000000000000000000000000000000000000000000000000000000000000000000000000000000000000000000000000000000000000000000000000000000000000000000000000000000000000000000000000000000000000000000000000000000000000000000000000000000000000000000000000000000000000000000000000000000000000000000000000000000000000000000000000000000000000000000000000000000000000000",
      "type": "0x2",
      "transactionHash": "0xd8e71651b07e1496ae3850a6d9775d2dc1fcb9902713b5525bbd6af1644b3845",
      "transactionIndex": "0x6f",
      "blockHash": "0xadbd30716d0e26cc4b47e468fd58c19f7baad24d9382d4263b32e8b98c56aed1",
      "blockNumber": "0x7c62eb",
      "gasUsed": "0xac00",
      "effectiveGasPrice": "0xf4c98",
      "from": "0x91dcf137f42130e5095558ee1d143f0282b114b0",
      "to": "0x6d04f9a23d4d11cb440380bc3a8365f121e1b6fd",
      "contractAddress": null
    }
  ],
  "libraries": [],
  "pending": [],
  "returns": {},
  "timestamp": 1745073615,
  "chain": 11155111,
  "commit": "c874213"
}