{
  "transactions": [
    {
      "hash": "0x164476cb43b6e328d7e05dd8dffe0c132700d88bf403e1dc3e4613962ccf0a95",
      "transactionType": "CREATE",
      "contractName": "MyMultiplicationCalculator",
      "contractAddress": "0xb54c0c9a2f0df5037f4b2c6c9147eae4dd46ad7b",
      "function": null,
      "arguments": null,
      "transaction": {
        "from": "0x91dcf137f42130e5095558ee1d143f0282b114b0",
        "gas": "0x2e9c9",
        "value": "0x0",
        "input": "0x6080604052348015600e575f5ffd5b506101b38061001c5f395ff3fe608060405234801561000f575f5ffd5b5060043610610029575f3560e01c8063165c4a161461002d575b5f5ffd5b610047600480360381019061004291906100a9565b61005d565b60405161005491906100f6565b60405180910390f35b5f818361006a919061013c565b905092915050565b5f5ffd5b5f819050919050565b61008881610076565b8114610092575f5ffd5b50565b5f813590506100a38161007f565b92915050565b5f5f604083850312156100bf576100be610072565b5b5f6100cc85828601610095565b92505060206100dd85828601610095565b9150509250929050565b6100f081610076565b82525050565b5f6020820190506101095f8301846100e7565b92915050565b7f4e487b71000000000000000000000000000000000000000000000000000000005f52601160045260245ffd5b5f61014682610076565b915061015183610076565b925082820261015f81610076565b915082820484148315176101765761017561010f565b5b509291505056fea264697066735822122050b3a4144f88b366df3da338a37a376db307ee2924810f745d3a8d34ebe8654d64736f6c634300081c0033",
        "nonce": "0x21",
        "chainId": "0xaa36a7"
      },
      "additionalContracts": [],
      "isFixedGasLimit": false
    },
    {
      "hash": "0xbed815f65db4f39c56f052b4329ddf859e0063cd65359afee32238851a8e9d58",
      "transactionType": "CALL",
      "contractName": null,
      "contractAddress": "0xd62ba83c51e63f69b212f24ac3ccf1a2dd70a39e",
      "function": "setMultiplicationCalculator(address)",
      "arguments": [
        "0xB54C0C9A2F0DF5037F4b2C6C9147Eae4dd46ad7B"
      ],
      "transaction": {
        "from": "0x91dcf137f42130e5095558ee1d143f0282b114b0",
        "to": "0xd62ba83c51e63f69b212f24ac3ccf1a2dd70a39e",
        "gas": "0x914f",
        "value": "0x0",
        "input": "0x218fefdc000000000000000000000000b54c0c9a2f0df5037f4b2c6c9147eae4dd46ad7b",
        "nonce": "0x22",
        "chainId": "0xaa36a7"
      },
      "additionalContracts": [],
      "isFixedGasLimit": false
    }
  ],
  "receipts": [
    {
      "status": "0x1",
      "cumulativeGasUsed": "0xa53019",
      "logs": [],
      "logsBloom": "0x00000000000000000000000000000000000000000000000000000000000000000000000000000000000000000000000000000000000000000000000000000000000000000000000000000000000000000000000000000000000000000000000000000000000000000000000000000000000000000000000000000000000000000000000000000000000000000000000000000000000000000000000000000000000000000000000000000000000000000000000000000000000000000000000000000000000000000000000000000000000000000000000000000000000000000000000000000000000000000000000000000000000000000000000000000000",
      "type": "0x2",
      "transactionHash": "0x164476cb43b6e328d7e05dd8dffe0c132700d88bf403e1dc3e4613962ccf0a95",
      "transactionIndex": "0x67",
      "blockHash": "0xca2cdffff72146c51622f1a82a41430695909c8bd0c24cff5db644129f2c08cf",
      "blockNumber": "0x7c6211",
      "gasUsed": "0x23daf",
      "effectiveGasPrice": "0xf4ce8",
      "from": "0x91dcf137f42130e5095558ee1d143f0282b114b0",
      "to": null,
      "contractAddress": "0xb54c0c9a2f0df5037f4b2c6c9147eae4dd46ad7b"
    },
    {
      "status": "0x1",
      "cumulativeGasUsed": "0xa5994d",
      "logs": [],
      "logsBloom": "0x00000000000000000000000000000000000000000000000000000000000000000000000000000000000000000000000000000000000000000000000000000000000000000000000000000000000000000000000000000000000000000000000000000000000000000000000000000000000000000000000000000000000000000000000000000000000000000000000000000000000000000000000000000000000000000000000000000000000000000000000000000000000000000000000000000000000000000000000000000000000000000000000000000000000000000000000000000000000000000000000000000000000000000000000000000000",
      "type": "0x2",
      "transactionHash": "0xbed815f65db4f39c56f052b4329ddf859e0063cd65359afee32238851a8e9d58",
      "transactionIndex": "0x68",
      "blockHash": "0xca2cdffff72146c51622f1a82a41430695909c8bd0c24cff5db644129f2c08cf",
      "blockNumber": "0x7c6211",
      "gasUsed": "0x6934",
      "effectiveGasPrice": "0xf4ce8",
      "from": "0x91dcf137f42130e5095558ee1d143f0282b114b0",
      "to": "0xd62ba83c51e63f69b212f24ac3ccf1a2dd70a39e",
      "contractAddress": null
    }
  ],
  "libraries": [],
  "pending": [],
  "returns": {},
  "timestamp": 1745070987,
  "chain": 11155111,
  "commit": "c874213"
}