{
  "transactions": [
    {
      "hash": "0x97eaaba17c1e3b0625d94d430b078e57adf8361a724ec47e2bd2a7528fd40388",
      "transactionType": "CALL",
      "contractName": null,
      "contractAddress": "0x35f8708aeed8554e6fd66da08241ca9c38114761",
      "function": "transferFrom(address,address,uint256)",
      "arguments": [
        "0xB2b0CECc1d064Cd75C65A03292E131E4a700e0Dd",
        "0x91DcF137f42130E5095558Ee1D143F0282B114B0",
        "20000000000000000000"
      ],
      "transaction": {
        "from": "0x91dcf137f42130e5095558ee1d143f0282b114b0",
        "to": "0x35f8708aeed8554e6fd66da08241ca9c38114761",
        "gas": "0x12cd4",
        "value": "0x0",
        "input": "0x23b872dd000000000000000000000000b2b0cecc1d064cd75c65a03292e131e4a700e0dd00000000000000000000000091dcf137f42130e5095558ee1d143f0282b114b0000000000000000000000000000000000000000000000001158e460913d00000",
        "nonce": "0x3f",
        "chainId": "0xaa36a7"
      },
      "additionalContracts": [],
      "isFixedGasLimit": false
    }
  ],
  "receipts": [
    {
      "status": "0x1",
      "cumulativeGasUsed": "0xd76048",
      "logs": [
        {
          "address": "0x35f8708aeed8554e6fd66da08241ca9c38114761",
          "topics": [
            "0x8c5be1e5ebec7d5bd14f71427d1e84f3dd0314c0f7b2291e5b200ac8c7c3b925",
            "0x000000000000000000000000b2b0cecc1d064cd75c65a03292e131e4a700e0dd",
            "0x00000000000000000000000091dcf137f42130e5095558ee1d143f0282b114b0"
          ],
          "data": "0x0000000000000000000000000000000000000000000000000000000000000000",
          "blockHash": "0x506f8724dfd364e2ea8ea62cc3ef0baa555d243d5acb387d7d0342bd6d2d0388",
          "blockNumber": "0x7cf7a0",
          "blockTimestamp": "0x680af1a4",
          "transactionHash": "0x97eaaba17c1e3b0625d94d430b078e57adf8361a724ec47e2bd2a7528fd40388",
          "transactionIndex": "0x7c",
          "logIndex": "0xea",
          "removed": false
        },
        {
          "address": "0x35f8708aeed8554e6fd66da08241ca9c38114761",
          "topics": [
            "0xddf252ad1be2c89b69c2b068fc378daa952ba7f163c4a11628f55a4df523b3ef",
            "0x000000000000000000000000b2b0cecc1d064cd75c65a03292e131e4a700e0dd",
            "0x00000000000000000000000091dcf137f42130e5095558ee1d143f0282b114b0"
          ],
          "data": "0x000000000000000000000000000000000000000000000001158e460913d00000",
          "blockHash": "0x506f8724dfd364e2ea8ea62cc3ef0baa555d243d5acb387d7d0342bd6d2d0388",
          "blockNumber": "0x7cf7a0",
          "blockTimestamp": "0x680af1a4",
          "transactionHash": "0x97eaaba17c1e3b0625d94d430b078e57adf8361a724ec47e2bd2a7528fd40388",
          "transactionIndex": "0x7c",
          "logIndex": "0xeb",
          "removed": false
        }
      ],
      "logsBloom": "0x00000000000000000000040000000000000000000000000000000000000000000000000000000000000000000000000000000000000000000000000000200000000000000000000000000008000000080000000000000000000200000000000000000000000000000000080000000000000000000000000000000010000000000000000000000000400000000000000000400000000000000000000000000000020000000000000000000000000000000000000000000000000000000000000000000002000000000000000000000000000000000000000800000000000000000010000000000000000000000000000000000000200080000000000000000000",
      "type": "0x2",
      "transactionHash": "0x97eaaba17c1e3b0625d94d430b078e57adf8361a724ec47e2bd2a7528fd40388",
      "transactionIndex": "0x7c",
      "blockHash": "0x506f8724dfd364e2ea8ea62cc3ef0baa555d243d5acb387d7d0342bd6d2d0388",
      "blockNumber": "0x7cf7a0",
      "gasUsed": "0xd9cc",
      "effectiveGasPrice": "0x3149da7",
      "from": "0x91dcf137f42130e5095558ee1d143f0282b114b0",
      "to": "0x35f8708aeed8554e6fd66da08241ca9c38114761",
      "contractAddress": null
    }
  ],
  "libraries": [],
  "pending": [],
  "returns": {},
  "timestamp": 1745547685,
  "chain": 11155111,
  "commit": "c874213"
}