{
  "transactions": [
    {
      "hash": "0x3d8f9f6aa977d6b780b9703b5d5f1ff2f38023933769104636887cf6a9533a19",
      "transactionType": "CREATE",
      "contractName": "MyPlusCalculator",
      "contractAddress": "0xa24c245b2c68fdc0d432bd6dbe49c7d66cb6fe85",
      "function": null,
      "arguments": null,
      "transaction": {
        "from": "0x91dcf137f42130e5095558ee1d143f0282b114b0",
        "gas": "0x2da7e",
        "value": "0x0",
        "input": "0x6080604052348015600e575f5ffd5b506101a58061001c5f395ff3fe608060405234801561000f575f5ffd5b5060043610610029575f3560e01c806366098d4f1461002d575b5f5ffd5b610047600480360381019061004291906100a9565b61005d565b60405161005491906100f6565b60405180910390f35b5f818361006a919061013c565b905092915050565b5f5ffd5b5f819050919050565b61008881610076565b8114610092575f5ffd5b50565b5f813590506100a38161007f565b92915050565b5f5f604083850312156100bf576100be610072565b5b5f6100cc85828601610095565b92505060206100dd85828601610095565b9150509250929050565b6100f081610076565b82525050565b5f6020820190506101095f8301846100e7565b92915050565b7f4e487b71000000000000000000000000000000000000000000000000000000005f52601160045260245ffd5b5f61014682610076565b915061015183610076565b92508282019050808211156101695761016861010f565b5b9291505056fea2646970667358221220db875df71ee7da4a406ed36173cbdb9c4b16b3e89a4b4b69faf9537952d1576f64736f6c634300081c0033",
        "nonce": "0x12",
        "chainId": "0xaa36a7"
      },
      "additionalContracts": [],
      "isFixedGasLimit": false
    },
    {
      "hash": "0x542338ac9ec0bf9409e07dd2e20eab78d28f240390474841dd3ae338176c5719",
      "transactionType": "CALL",
      "contractName": null,
      "contractAddress": "0x96e232b0ae31c834c15374849d16f8ecb975abfb",
      "function": "setPlusCalculator(address)",
      "arguments": [
        "0xa24c245B2C68FDC0d432bd6dbe49C7D66cB6Fe85"
      ],
      "transaction": {
        "from": "0x91dcf137f42130e5095558ee1d143f0282b114b0",
        "to": "0x96e232b0ae31c834c15374849d16f8ecb975abfb",
        "gas": "0x1100a",
        "value": "0x0",
        "input": "0xcbc3c207000000000000000000000000a24c245b2c68fdc0d432bd6dbe49c7d66cb6fe85",
        "nonce": "0x13",
        "chainId": "0xaa36a7"
      },
      "additionalContracts": [],
      "isFixedGasLimit": false
    }
  ],
  "receipts": [
    {
      "status": "0x1",
      "cumulativeGasUsed": "0x17b0224",
      "logs": [],
      "logsBloom": "0x00000000000000000000000000000000000000000000000000000000000000000000000000000000000000000000000000000000000000000000000000000000000000000000000000000000000000000000000000000000000000000000000000000000000000000000000000000000000000000000000000000000000000000000000000000000000000000000000000000000000000000000000000000000000000000000000000000000000000000000000000000000000000000000000000000000000000000000000000000000000000000000000000000000000000000000000000000000000000000000000000000000000000000000000000000000",
      "type": "0x2",
      "transactionHash": "0x3d8f9f6aa977d6b780b9703b5d5f1ff2f38023933769104636887cf6a9533a19",
      "transactionIndex": "0xc4",
      "blockHash": "0x5907636c9da45b4239737a22e5f81da7d200b8b57f03891845625d34616f7588",
      "blockNumber": "0x7c2307",
      "gasUsed": "0x231eb",
      "effectiveGasPrice": "0x1b94e9",
      "from": "0x91dcf137f42130e5095558ee1d143f0282b114b0",
      "to": null,
      "contractAddress": "0xa24c245b2c68fdc0d432bd6dbe49c7d66cb6fe85"
    },
    {
      "status": "0x1",
      "cumulativeGasUsed": "0x17bbc27",
      "logs": [],
      "logsBloom": "0x00000000000000000000000000000000000000000000000000000000000000000000000000000000000000000000000000000000000000000000000000000000000000000000000000000000000000000000000000000000000000000000000000000000000000000000000000000000000000000000000000000000000000000000000000000000000000000000000000000000000000000000000000000000000000000000000000000000000000000000000000000000000000000000000000000000000000000000000000000000000000000000000000000000000000000000000000000000000000000000000000000000000000000000000000000000",
      "type": "0x2",
      "transactionHash": "0x542338ac9ec0bf9409e07dd2e20eab78d28f240390474841dd3ae338176c5719",
      "transactionIndex": "0xc5",
      "blockHash": "0x5907636c9da45b4239737a22e5f81da7d200b8b57f03891845625d34616f7588",
      "blockNumber": "0x7c2307",
      "gasUsed": "0xba03",
      "effectiveGasPrice": "0x1b94e9",
      "from": "0x91dcf137f42130e5095558ee1d143f0282b114b0",
      "to": "0x96e232b0ae31c834c15374849d16f8ecb975abfb",
      "contractAddress": null
    }
  ],
  "libraries": [],
  "pending": [],
  "returns": {},
  "timestamp": 1744872493,
  "chain": 11155111,
  "commit": "c874213"
}