{
  "transactions": [
    {
      "hash": "0x9e10d5a2df2372b125d60fd40deb98e65601c9b980dfc222630b39011320c298",
      "transactionType": "CREATE",
      "contractName": "Attack",
      "contractAddress": "0x48557a1842ec1dea0639a0ebeb4350df6337790c",
      "function": null,
      "arguments": [
        "0x68bc730ff8b8b4eaA8b6e286961FEB84952cfb95"
      ],
      "transaction": {
        "from": "0x91dcf137f42130e5095558ee1d143f0282b114b0",
        "gas": "0x6742e",
        "value": "0x0",
        "input": "0x608060405234801561000f575f5ffd5b50604051610580380380610580833981810160405281019061003191906100d4565b805f5f6101000a81548173ffffffffffffffffffffffffffffffffffffffff021916908373ffffffffffffffffffffffffffffffffffffffff160217905550506100ff565b5f5ffd5b5f73ffffffffffffffffffffffffffffffffffffffff82169050919050565b5f6100a38261007a565b9050919050565b6100b381610099565b81146100bd575f5ffd5b50565b5f815190506100ce816100aa565b92915050565b5f602082840312156100e9576100e8610076565b5b5f6100f6848285016100c0565b91505092915050565b6104748061010c5f395ff3fe608060405234801561000f575f5ffd5b5060043610610034575f3560e01c806364dd891a146100385780638d2f16b414610054575b5f5ffd5b610052600480360381019061004d9190610278565b610072565b005b61005c61021d565b60405161006991906102e2565b60405180910390f35b5f67ffffffff0000ffff60c01b3360c01b1690505f8290505b6064836100989190610328565b811015610216575f5f5f9054906101000a900473ffffffffffffffffffffffffffffffffffffffff1673ffffffffffffffffffffffffffffffffffffffff1682619ffb6100e59190610328565b846040516024016100f69190610395565b6040516020818303038152906040527f3370204e000000000000000000000000000000000000000000000000000000007bffffffffffffffffffffffffffffffffffffffffffffffffffffffff19166020820180517bffffffffffffffffffffffffffffffffffffffffffffffffffffffff83818316178352505050506040516101809190610400565b5f604051808303815f8787f1925050503d805f81146101ba576040519150601f19603f3d011682016040523d82523d5f602084013e6101bf565b606091505b505090508015610208577f9480c05fb4b099b79e588a5b84a36c33ee79590aedc3de34b0cc952cda8f77f1826040516101f89190610425565b60405180910390a150505061021a565b50808060010191505061008b565b5f5ffd5b50565b5f5f9054906101000a900473ffffffffffffffffffffffffffffffffffffffff1681565b5f5ffd5b5f819050919050565b61025781610245565b8114610261575f5ffd5b50565b5f813590506102728161024e565b92915050565b5f6020828403121561028d5761028c610241565b5b5f61029a84828501610264565b91505092915050565b5f73ffffffffffffffffffffffffffffffffffffffff82169050919050565b5f6102cc826102a3565b9050919050565b6102dc816102c2565b82525050565b5f6020820190506102f55f8301846102d3565b92915050565b7f4e487b71000000000000000000000000000000000000000000000000000000005f52601160045260245ffd5b5f61033282610245565b915061033d83610245565b9250828201905080821115610355576103546102fb565b5b92915050565b5f7fffffffffffffffff00000000000000000000000000000000000000000000000082169050919050565b61038f8161035b565b82525050565b5f6020820190506103a85f830184610386565b92915050565b5f81519050919050565b5f81905092915050565b8281835e5f83830152505050565b5f6103da826103ae565b6103e481856103b8565b93506103f48185602086016103c2565b80840191505092915050565b5f61040b82846103d0565b915081905092915050565b61041f81610245565b82525050565b5f6020820190506104385f830184610416565b9291505056fea264697066735822122032374b4e29bdfdbd888c087a873f7a161b9a5ee098abb9d48cb9e9d285ba8e5664736f6c634300081c003300000000000000000000000068bc730ff8b8b4eaa8b6e286961feb84952cfb95",
        "nonce": "0xd6",
        "chainId": "0xaa36a7"
      },
      "additionalContracts": [],
      "isFixedGasLimit": false
    },
    {
      "hash": "0x6ec9dcfe3e644aef2c2ea578a9a020c5249d1f04d93406ca38cec30b06dfaf7d",
      "transactionType": "CALL",
      "contractName": "Attack",
      "contractAddress": "0x48557a1842ec1dea0639a0ebeb4350df6337790c",
      "function": "attack(uint256)",
      "arguments": [
        "200"
      ],
      "transaction": {
        "from": "0x91dcf137f42130e5095558ee1d143f0282b114b0",
        "to": "0x48557a1842ec1dea0639a0ebeb4350df6337790c",
        "gas": "0x31204",
        "value": "0x0",
        "input": "0x64dd891a00000000000000000000000000000000000000000000000000000000000000c8",
        "nonce": "0xd7",
        "chainId": "0xaa36a7"
      },
      "additionalContracts": [],
      "isFixedGasLimit": false
    }
  ],
  "receipts": [
    {
      "status": "0x1",
      "cumulativeGasUsed": "0xa85ca7",
      "logs": [],
      "logsBloom": "0x00000000000000000000000000000000000000000000000000000000000000000000000000000000000000000000000000000000000000000000000000000000000000000000000000000000000000000000000000000000000000000000000000000000000000000000000000000000000000000000000000000000000000000000000000000000000000000000000000000000000000000000000000000000000000000000000000000000000000000000000000000000000000000000000000000000000000000000000000000000000000000000000000000000000000000000000000000000000000000000000000000000000000000000000000000000",
      "type": "0x2",
      "transactionHash": "0x9e10d5a2df2372b125d60fd40deb98e65601c9b980dfc222630b39011320c298",
      "transactionIndex": "0x61",
      "blockHash": "0x729bca7c4880779c9a711fa5a6e70dacab8139c16fb9b7dbda0d4ccdc5993bfa",
      "blockNumber": "0x82ee14",
      "gasUsed": "0x4f6e9",
      "effectiveGasPrice": "0x1027fc",
      "from": "0x91dcf137f42130e5095558ee1d143f0282b114b0",
      "to": null,
      "contractAddress": "0x48557a1842ec1dea0639a0ebeb4350df6337790c"
    },
    {
      "status": "0x1",
      "cumulativeGasUsed": "0xaa95b7",
      "logs": [
        {
          "address": "0x48557a1842ec1dea0639a0ebeb4350df6337790c",
          "topics": [
            "0x9480c05fb4b099b79e588a5b84a36c33ee79590aedc3de34b0cc952cda8f77f1"
          ],
          "data": "0x0000000000000000000000000000000000000000000000000000000000000100",
          "blockHash": "0x729bca7c4880779c9a711fa5a6e70dacab8139c16fb9b7dbda0d4ccdc5993bfa",
          "blockNumber": "0x82ee14",
          "blockTimestamp": "0x68539b24",
          "transactionHash": "0x6ec9dcfe3e644aef2c2ea578a9a020c5249d1f04d93406ca38cec30b06dfaf7d",
          "transactionIndex": "0x62",
          "logIndex": "0x4f",
          "removed": false
        }
      ],
      "logsBloom": "0x00000000000000000000000000000000000000000000000000000000000000000001000000000000000000000000000000000000000000000000000000000000000000000000000000000000000000002000000000000000000000000000000000000000000000000000000000000000000000000000000000000000000000000000000000000000000000000000000000000000000000000000000000000000000400000000000000000000000000000080000000000000000000000200000000000000000000000000000000000000000000000000000000000000000000000000000000000000000000000000000000000000000000001000000000000000",
      "type": "0x2",
      "transactionHash": "0x6ec9dcfe3e644aef2c2ea578a9a020c5249d1f04d93406ca38cec30b06dfaf7d",
      "transactionIndex": "0x62",
      "blockHash": "0x729bca7c4880779c9a711fa5a6e70dacab8139c16fb9b7dbda0d4ccdc5993bfa",
      "blockNumber": "0x82ee14",
      "gasUsed": "0x23910",
      "effectiveGasPrice": "0x1027fc",
      "from": "0x91dcf137f42130e5095558ee1d143f0282b114b0",
      "to": "0x48557a1842ec1dea0639a0ebeb4350df6337790c",
      "contractAddress": null
    }
  ],
  "libraries": [],
  "pending": [],
  "returns": {},
  "timestamp": 1750309696,
  "chain": 11155111,
  "commit": "c874213"
}