{
  "transactions": [
    {
      "hash": "0x3a07b2a62e8e230b97d84ca9d628c0a3be7f1a6d9ebb407cdcfb768a2bdb1fdf",
      "transactionType": "CREATE",
      "contractName": "MyMultiplicationCalculator",
      "contractAddress": "0x475e91dba9d00022acdf5cfba66e26c6bc311ad4",
      "function": null,
      "arguments": null,
      "transaction": {
        "from": "0x91dcf137f42130e5095558ee1d143f0282b114b0",
        "gas": "0x2e9c9",
        "value": "0x0",
        "input": "0x6080604052348015600e575f5ffd5b506101b38061001c5f395ff3fe608060405234801561000f575f5ffd5b5060043610610029575f3560e01c8063165c4a161461002d575b5f5ffd5b610047600480360381019061004291906100a9565b61005d565b60405161005491906100f6565b60405180910390f35b5f818361006a919061013c565b905092915050565b5f5ffd5b5f819050919050565b61008881610076565b8114610092575f5ffd5b50565b5f813590506100a38161007f565b92915050565b5f5f604083850312156100bf576100be610072565b5b5f6100cc85828601610095565b92505060206100dd85828601610095565b9150509250929050565b6100f081610076565b82525050565b5f6020820190506101095f8301846100e7565b92915050565b7f4e487b71000000000000000000000000000000000000000000000000000000005f52601160045260245ffd5b5f61014682610076565b915061015183610076565b925082820261015f81610076565b915082820484148315176101765761017561010f565b5b509291505056fea264697066735822122050b3a4144f88b366df3da338a37a376db307ee2924810f745d3a8d34ebe8654d64736f6c634300081c0033",
        "nonce": "0x1d",
        "chainId": "0xaa36a7"
      },
      "additionalContracts": [],
      "isFixedGasLimit": false
    },
    {
      "hash": "0xc0c5c0de899c9c186543d2cb43d3aa4d1daaf08a8b934ae194686b6bff587291",
      "transactionType": "CALL",
      "contractName": null,
      "contractAddress": "0xd62ba83c51e63f69b212f24ac3ccf1a2dd70a39e",
      "function": "setMultiplicationCalculator(address)",
      "arguments": [
        "0x475e91dba9D00022ACDf5cFBA66e26C6BC311ad4"
      ],
      "transaction": {
        "from": "0x91dcf137f42130e5095558ee1d143f0282b114b0",
        "to": "0xd62ba83c51e63f69b212f24ac3ccf1a2dd70a39e",
        "gas": "0xed82",
        "value": "0x0",
        "input": "0x218fefdc000000000000000000000000475e91dba9d00022acdf5cfba66e26c6bc311ad4",
        "nonce": "0x1e",
        "chainId": "0xaa36a7"
      },
      "additionalContracts": [],
      "isFixedGasLimit": false
    }
  ],
  "receipts": [
    {
      "status": "0x1",
      "cumulativeGasUsed": "0xbe8c70",
      "logs": [],
      "logsBloom": "0x00000000000000000000000000000000000000000000000000000000000000000000000000000000000000000000000000000000000000000000000000000000000000000000000000000000000000000000000000000000000000000000000000000000000000000000000000000000000000000000000000000000000000000000000000000000000000000000000000000000000000000000000000000000000000000000000000000000000000000000000000000000000000000000000000000000000000000000000000000000000000000000000000000000000000000000000000000000000000000000000000000000000000000000000000000000",
      "type": "0x2",
      "transactionHash": "0x3a07b2a62e8e230b97d84ca9d628c0a3be7f1a6d9ebb407cdcfb768a2bdb1fdf",
      "transactionIndex": "0x95",
      "blockHash": "0x65c7511c5648646b9b6a52fd714332145a562932c6d14a4729f774adee75a9e4",
      "blockNumber": "0x7c61f8",
      "gasUsed": "0x23daf",
      "effectiveGasPrice": "0xf4cfc",
      "from": "0x91dcf137f42130e5095558ee1d143f0282b114b0",
      "to": null,
      "contractAddress": "0x475e91dba9d00022acdf5cfba66e26c6bc311ad4"
    },
    {
      "status": "0x1",
      "cumulativeGasUsed": "0xbf3864",
      "logs": [],
      "logsBloom": "0x00000000000000000000000000000000000000000000000000000000000000000000000000000000000000000000000000000000000000000000000000000000000000000000000000000000000000000000000000000000000000000000000000000000000000000000000000000000000000000000000000000000000000000000000000000000000000000000000000000000000000000000000000000000000000000000000000000000000000000000000000000000000000000000000000000000000000000000000000000000000000000000000000000000000000000000000000000000000000000000000000000000000000000000000000000000",
      "type": "0x2",
      "transactionHash": "0xc0c5c0de899c9c186543d2cb43d3aa4d1daaf08a8b934ae194686b6bff587291",
      "transactionIndex": "0x96",
      "blockHash": "0x65c7511c5648646b9b6a52fd714332145a562932c6d14a4729f774adee75a9e4",
      "blockNumber": "0x7c61f8",
      "gasUsed": "0xabf4",
      "effectiveGasPrice": "0xf4cfc",
      "from": "0x91dcf137f42130e5095558ee1d143f0282b114b0",
      "to": "0xd62ba83c51e63f69b212f24ac3ccf1a2dd70a39e",
      "contractAddress": null
    }
  ],
  "libraries": [],
  "pending": [],
  "returns": {},
  "timestamp": 1745070686,
  "chain": 11155111,
  "commit": "c874213"
}